:020000040800F2
:10000000C0060020350200087B1200081512000807
:1000100079120008610500081913000800000000AB
:100020000000000000000000000000007F12000837
:1000300063050008000000007D120008811200081E
:100040004F0200084F0200084F0200084F0200084C
:100050004F0200084F0200084F0200084F0200083C
:100060004F0200084F0200084F0200084F0200082C
:100070004F0200084F0200084F0200084F0200081C
:100080004F0200084F0200082D0400080000000085
:100090000000000000000000000000004F02000807
:1000A0004F0200084F0200084F0200084F020008EC
:1000B0004F0200084F0200084F0200084F020008DC
:1000C0004F0200084F0200084F0200084F020008CC
:1000D0004F0200084F0200084F0200080000000015
:1000E0004F0200084F0200084F0200080000000005
:1000F0000000000000000000000000004F020008A7
:10010000000000004F0200084F0200084F020008E4
:1001100000000000000000000000000000000000DF
:100120004F0200084F0200084F0200084F0200086B
:100130004F02000800000000000000000000000066
:100140000000000000000000000000004F02000856
:100150004F0200084F0200084F0200084F0200083B
:100160004F0200084F0200080000000000000000DD
:10017000000000000000000000000000000000007F
:10018000000000004F020008000000000000000016
:100190004F02000800F002F800F03CF80AA090E8D6
:1001A000000C82448344AAF10107DA4501D100F032
:1001B00031F8AFF2090EBAE80F0013F0010F18BFC3
:1001C000FB1A43F001031847201200004012000000
:1001D000103A24BF78C878C1FAD8520724BF30C873
:1001E00030C144BF04680C60704700000023002445
:1001F00000250026103A28BF78C1FBD8520728BF37
:1002000030C148BF0B6070471FB501F0DFF81FBD5C
:1002100010B510BD00F0CFF81146FFF7F5FF01F063
:100220008DF800F0EDF803B4FFF7F2FF03BC00F027
:10023000F5F800000948804709480047FEE7FEE757
:10024000FEE7FEE7FEE7FEE7FEE7FEE7FEE7FEE786
:1002500004480549054A064B704700000913000889
:1002600095010008C0000020C0060020C002002048
:10027000C002002053EA020C00F069802DE9F04B27
:100280004FF00006002B1FBFB3FA83F503FA05F405
:1002900024FA05F65E4012BF1643B2FA82F502FA5E
:1002A00005F4C5F120051EBF22FA05FC44EA0C0442
:1002B000203556EA044C4FEA144418BF641C4FF032
:1002C00000084FF00009904271EB030C39D300296C
:1002D00019BFB1FA81F701FA07F6B0FA80F700FA10
:1002E00007F6C7F120071EBF20FA07FC46EA0C06F6
:1002F0002037B6FBF4FCA7EB0507103F07F01F0BF8
:10030000CBF120060CFA0BFB2CFA06F644BFB346E1
:100310000026202FA4BF5E464FF0000B5BEA060CC0
:1003200008BF4FF0010B19EB0B09ABFB027C48EB4C
:100330000608C01B06FB02CC0BFB03CC71EB0C01C7
:10034000C1E70B46024641464846BDE8F08B13B56F
:100350004FF000004FF00001AFF30080BDE81C40FB
:1003600070474FF0000200B5134694469646203978
:1003700022BFA0E80C50A0E80C50B1F12001BFF45E
:10038000F7AF090728BFA0E80C5048BF0CC05DF8C4
:1003900004EB890028BF40F8042B08BF704748BF12
:1003A00020F8022B11F0804F18BF00F8012B704786
:1003B000704770477047754600F02CF8AE46050050
:1003C0006946534620F00700854618B020B5FFF770
:1003D0003FFFBDE820404FF000064FF000074FF010
:1003E00000084FF0000B21F00701AC46ACE8C00953
:1003F000ACE8C009ACE8C009ACE8C0098D4670475C
:1004000010B50446AFF300802046BDE81040FFF76A
:100410000ABF0000004870475C0000200149182016
:10042000ABBEFEE72600020070470000014800F066
:1004300055B9000014000020464910B54A6822F45E
:1004400040324A604A6843681A434A6001684A6811
:1004500022F480724A6001684A68036942EA032212
:100460004A6001684A6822F040724A6001684A683E
:1004700083681A434A6001688A6822F400628A60CD
:1004800001688A68C3681A438A60816A6FF0706283
:10049000D14201688A6822F070628A6001688A68C5
:1004A0000CD0836A1A438A6001688A6822F040523D
:1004B0008A6001688A68C36A1A4301E022F04052E8
:1004C0008A6001688A6822F002028A6001688A688C
:1004D000037E42EA43028A6090F8201000290168F6
:1004E0004A680FD042F400624A6001684A6822F408
:1004F00060424A6001684A68174C436A04EB433320
:100500001A4301E022F400624A600168CA6A22F4D8
:100510007002CA620168CA6A838B104C04EB0353F1
:100520001A43CA6201688A6822F400728A6001680C
:100530008A6890F8303042EA43228A6001688A680B
:1005400022F480628A6001688A68406942EA8020F9
:10055000886010BD0023014000E0FFFF0000F0FFB5
:10056000FEE770477047000078B50024009490F8CB
:100570003C20012A19D0012280F83C200A68072378
:100580000568092A13D9EE680A3A02EB4202934041
:100590009E43EE600B788A680A3B03EB43039A4064
:1005A0000368DD682A43DA6010E0022078BD2E6916
:1005B00002EB420293409E432E610B788A6803EB64
:1005C00043039A4003681D692A431A614A681F233E
:1005D000072A13D205686E6B521E02EB820293400B
:1005E0009E436E630B790A885B1E92B203EB830312
:1005F0009A4003685D6B2A435A6327E005680D2A19
:1006000012D22E6BD21F02EB820293409E432E63C6
:100610000B790A88DB1F92B203EB83039A400368CD
:100620001D6B2A431A6311E0EE6A0D3A02EB820257
:1006300093409E43EE620B790A880D3B92B203EB26
:1006400083039A400368DD6A2A43DA62164B056821
:10065000144A9D4206D10D68122D03D1556845F408
:100660008005556005689D4218D10B68102B01D09C
:10067000112B13D1536843F4000353600968102908
:100680000CD10A490A4A0968B1FBF2F101EB810178
:10069000490000E0491E00910029FBD180F83C4050
:1006A000002078BD00230140002001401000002000
:1006B00040420F0010B5054A01681268914203D10B
:1006C00000F009F80249086010BD00001400002085
:1006D0000000002070470068C06C704770B5044689
:1006E000006801684268C1F34001C2F3401251B38F
:1006F0004AB3216CC90603D4216C41F40071216412
:10070000816811F0405F17D1217EA9B9C16A11F447
:10071000700F02D0816849050ED4416821F0200194
:100720004160206C20F480702064206CC00403D4ED
:10073000206C40F0010020642046FFF7BBFF2168D9
:100740006FF012000860206801684268C1F3800100
:10075000C2F3C01289B382B3216CC90603D4216CE1
:1007600041F400512164816811F4401F1ED1816B56
:1007700011F4401F02D08168490517D4416849052A
:1007800014D4816811F0405F10D1217E71B94168A5
:1007900021F080014160206C20F480502064206CA6
:1007A000C00503D4206C40F0010020642046FFF710
:1007B000D9FE21686FF00C0008602068016842686B
:1007C00011F0010FC2F380120ED06AB10068C007A9
:1007D0000AD0206C40F480302064204600F046F8B7
:1007E00021686FF001000860206801684268C1F369
:1007F0004011C2F3806200290DD0002A0BD0616C39
:1008000041F0020161646FF0200505602046FFF7AA
:1008100061FF2068056070BD70B504004FF00005F1
:1008200003D0206C002610B107E0012070BD2046E7
:1008300000F01EF8666484F83C60206CC00610D49A
:10084000206C20F4885040F0020020642046FFF71E
:10085000F3FD6664206C20F0020040F0010020648B
:1008600000E0012584F83C60284670BD7047000018
:1008700010B586B0044614216846FFF772FD15498D
:100880002068884224D114480021026842F4807212
:100890000260006800F4807005900F481438026808
:1008A00042F001020260006800F0010005900120A2
:1008B00000900320CDE901016946084800F07EF868
:1008C00000221146122000F0DDF9122000F0CCF9D0
:1008D00006B010BD00200140443802400000024034
:1008E00018B50021009190F83C20012A07D0012280
:1008F00080F83C2002689368DB0702D011E00220F8
:1009000018BD936843F001039360274A274B126890
:10091000B2FBF3F202EB420200E0521E0092002A08
:10092000FBD102689368DB0733D0036C40F20164AB
:10093000A34343F48073036453685B0505D5036CDC
:1009400023F4005343F480530364036CDB0404D5A5
:10095000436C23F00603436400E0416480F83C10DC
:10096000134B6FF02201116001684A68114C224359
:100970004A6059680068C90602D00F49884210D100
:10098000816811F0405F0CD1816841F08041816045
:1009900007E0016C41F010010164416C41F001017C
:1009A0004164002018BD00001000002040420F00EC
:1009B0000023014020000004002001402DE9F84FF1
:1009C000DFF8B8A1002201240AF1040B03254FF03F
:1009D0000F090BF1040E00BF0B6804FA02F6334056
:1009E000B34273D10F7907F00307012F01D0022F13
:1009F00016D187684FEA420805FA08FC27EA0C0777
:100A0000D1F80CC00CFA08FC4CEA070CC0F808C07E
:100A10004768B7430E79C6F3001696403E434660DA
:100A20000E79F643B6070DD0C768560005FA06FCE6
:100A300027EA0C07D1F808C00CFA06FC4CEA070CB0
:100A4000C0F80CC00E7906F00306022E10D1D608AD
:100A500000EB8608D8F8206057074FEAD76C09FAF0
:100A60000CF7BE430F6907FA0CF73743C8F820703C
:100A700006684FEA420C05FA0CF7BE430F7907F0FF
:100A8000030707FA0CF7374307604E6816F4403F38
:100A90006DD03B4E376847F480473760366822F0A8
:100AA000030706F480460096364E07EB060CDCF88A
:100AB000086897073F0F09FA07F826EA0806DFF8E3
:100AC000C880404503D14FF000081EE04FE0DFF83A
:100AD000BC80404502D14FF0010816E0DFF8B0803D
:100AE000404502D14FF002080FE0DFF8A8804045F2
:100AF00002D14FF0030808E0DFF89C80404502D1A6
:100B00004FF0040801E04FF0070808FA07F848EA38
:100B10000608CCF80888DAF800605746D1F804C017
:100B20009E435FEACC3C00D51E433E60DBF800608C
:100B30005F46D1F804C09E435FEA8C3C00D51E435B
:100B40003E60DEF800607746D1F804C09E435FEA5D
:100B5000CC2C00D51E433E60084F0C373E68D1F8C0
:100B600004C09E435FEA8C2C00D51E433E60521C9D
:100B7000102AFFF431AFBDE8F88F0000003C0140BF
:100B800044380240003001400000024000040240AE
:100B900000080240000C0240001002400AB18161CE
:100BA00070470904FBE700000148806870470000B7
:100BB0000400002002488168027811448160704777
:100BC000040000200B4810B5016841F40071016079
:100BD000016841F480610160016841F48071016045
:100BE000032000F06FF80F2000F006F800F024F862
:100BF000002010BD003C024070B50D4D04464FF47E
:100C00007A712878B1FBF0F00A490968B1FBF0F07D
:100C100000F0ECFA48B9102C07D200222146501EF1
:100C200000F030F800206C6070BD012070BD000045
:100C300004000020100000200A4808B5016841F4B3
:100C400080410160006800F4804000900548001F6A
:100C5000016841F080510160006800F08050009010
:100C600008BD000044380240002809DB00F01F02E4
:100C7000012191404009800000F1E020C0F80011FE
:100C800070470000F0B40E4B1B680C46C3F3022300
:100C9000C3F10705042D00D90425191D072901D228
:100CA000002300E0DB1E012606FA05F1491E214063
:100CB00099409E40761E16403143F0BC00F02DBB9B
:100CC0000CED00E0064900F0070208684FF6FF034C
:100CD000184040EA0220034A1043086070470000B1
:100CE0000CED00E00000FA052DE9F0470E46050086
:100CF00065D0DFF81481D8F80000F7B200F00700E3
:100D0000B04207D288F80070D8F8000000F0070061
:100D1000B04254D128683D4C810712D5400703D515
:100D2000206840F4E05020602878000703D5206850
:100D300040F4604020602068A96820F0F00008437B
:100D400020602878C0072DD030496868083901280C
:100D500012D0022813D0032811D00968890700296E
:100D60002DDA216821F0030101432160FFF71CFF08
:100D7000814641F2883A0EE009688903EFE7096885
:100D80008901ECE7FFF710FFA0EB0901514502D9FB
:100D90000320BDE8F0872068696800F00C00B0EB24
:100DA000810FEFD1D8F80010404601F00701B142A1
:100DB00007D90770006800F00700B04201D0012099
:100DC000E7E72878400705D52068E96820F4E05077
:100DD000084320602878000706D52068296920F498
:100DE000604040EAC100206000F018F82168084A1D
:100DF000C1F30311515CC840064908600648006809
:100E0000FFF7FAFE0020C4E7003C02400838024029
:100E1000D61300081000002008000020154810B567
:100E2000006810F00C02144813D01449042A0FD0A3
:100E3000082A0ED10F4C241F2268236802F03F02BB
:100E40005B0207D52068C0F38810A0FB010106E013
:100E5000084610BD2168C1F38811A1FB00010023E1
:100E6000FFF708FA2168C1F30141491C4900B0FBB2
:100E7000F1F010BD083802400024F40040787D01F4
:100E80002DE9F84F04006ED02078DFF84C93C007AE
:100E9000A9F104054AD009F104000168C1F38101F8
:100EA000012908D00068C0F3810002280AD1D9F8CE
:100EB0000000400206D52868800337D56068002806
:100EC000E1D033E06068B0F5803F10D0B0F5A02FDE
:100ED000286810D020F480302860286820F4802012
:100EE00028606068A8B1FFF75FFE06460DE028683D
:100EF00040F48030F4E740F480202860F7E700BF3A
:100F0000FFF752FE801B642873D828688003F7D54A
:100F10000CE0FFF749FE064605E000BFFFF744FE80
:100F2000801B6428F0D828688003F7D42078DFF885
:100F3000AC8280074FF0000A3ED5A748001D01682B
:100F400011F00C0F08D00068C0F3810002280BD10B
:100F5000D9F80000400207D42868800716D5E06859
:100F6000012800D112E033E1E068B8B10120C8F8EF
:100F70000000FFF719FE064605E000BFFFF714FE6C
:100F8000801B0228C0D828688007F7D52868216907
:100F900020F0F80040EAC10028600DE0C8F800A089
:100FA000FFF702FE064604E0FFF7FEFD801B022865
:100FB0001FD828688007F7D42078000722D5864FED
:100FC00087486169703771B101210160FFF7ECFD5D
:100FD000064604E0FFF7E8FD801B022809D83868C0
:100FE0008007F7D50EE0C0F800A0FFF7DDFD06464C
:100FF00005E082E0FFF7D8FD801B02287DD8386825
:101000008007F7D42078400768D5DFF8CCB10027F7
:101010000BF13C0BDBF80000C0000BD4DBF8001038
:1010200041F08051CBF80010DBF80000012700F000
:10103000805000906B4E3068C00510D4306840F48A
:1010400080703060FFF7B0FD009005E0FFF7ACFD69
:101050000099401A022850D83068C005F6D55E4E77
:10106000A0686C3601280FD00528306810D020F019
:1010700001003060306820F004003060A068B8B132
:10108000FFF792FD00900FE0306840F00100F4E7B8
:1010900040F004003060F7E7FFF786FD0099411A41
:1010A00041F28830814266D830688007F4D50EE07E
:1010B000FFF77AFD009007E0FFF776FD0099411AEF
:1010C00041F28830814256D830688007F4D42FB17D
:1010D000DBF8001021F08051CBF80010A069C8B3F4
:1010E0003D49091D0968C1F3810102294AD002283E
:1010F000504607D0C8F8600000E03CE0FFF754FD20
:1011000004463BE04746C8F86000FFF74DFD064641
:1011100005E000BFFFF748FD801B02282BD8286898
:101120008001F7D4D4E907010843A16A2E4A49088F
:1011300002EB0141626A41EA8211084394F82C10E3
:1011400040EA0161C9F8001001203866FFF72CFD64
:10115000044606E03EE000BFFFF726FD001B022824
:1011600009D828688001F7D534E000BFFFF71CFDDF
:10117000001B022802D90320BDE8F88F28688001EF
:10118000F4D427E00128F7D0D9F80000E26900F490
:10119000800191421CD1226A00F03F01914217D197
:1011A00047F6C071626A0140B1EB821F10D1A26A9A
:1011B0004FF0FF3300F4403103EB5202B1EB024F2A
:1011C00006D194F82C1000F07060B0EB016F01D0E4
:1011D0000120D1E70020CFE7043802400000474259
:1011E000800E4742007000400000FFFF10B5401E17
:1011F000B0F1807F01D3012010BD4FF0E024606189
:101200000F21601700F089F80020A06107202061FD
:10121000002010BDFEE700007FB5002414480094B4
:101220000194029411490394C0E9001484600125DB
:101230000461057680F820400E49C0E90A14C561B2
:10124000C46080F830404561FFF7E6FA08B172B635
:10125000FEE704200094CDE9015069460448FFF7F9
:1012600083F9002801D072B6FEE77FBD002001405F
:10127000140000200100000FFEE7FEE770477047F2
:10128000FFF798BC10B592B030216846FFF769F8B7
:1012900014210CA8FFF765F819480024016841F0F3
:1012A00080510160006800F080501190154801687D
:1012B00021F4404141F4004101600068069400F4CB
:1012C00040401190022000900120039010200490D3
:1012D0006846FFF7D5FD08B172B6FEE70F20CDE9ED
:1012E0000C048020CDE90E0400210CA81094FFF717
:1012F000FBFC002801D072B6FEE712B010BD000062
:1013000040380240007000400248016841F470011A
:101310000160704788ED00E0FEE70907090E00282C
:1013200004DB00F1E02080F80014704700F00F00AB
:1013300000F1E02080F8141D7047000086B0FFF730
:1013400041FCFFF79FFF14216846FFF70AF81B488E
:101350000024016841F0010101600068184D00F0AF
:1013600001004FF400760590224631462846FFF7EB
:1013700015FC01200096CDE9010469462846039436
:10138000FFF71CFB2815CDE90004694628460294A6
:10139000FFF714FBFFF740FF0A48FFF7A1FA0A4CDA
:1013A0004FF4FA772068B84201DD012200E0002204
:1013B00031462846FFF7F2FBF4E7000030380240E0
:1013C0000000024014000020000000204FF0407098
:1013D000E1EE100A7047000000000000000001026A
:1013E0000304060708090000081400080000002094
:1013F00014000000D00100081C1400081400002094
:10140000AC060000EC010008000000000100000034
:0C14100010000000000000000024F400A8
:040000050800019559
:00000001FF
